{
  "_format": "hh-sol-artifact-1",
  "contractName": "SuperCarERC1155",
  "sourceName": "contracts/SuperERC1155.sol",
  "abi": [
    {
      "inputs": [
        {
          "internalType": "string",
          "name": "_uri",
          "type": "string"
        },
        {
          "internalType": "uint256",
          "name": "_maxSupply",
          "type": "uint256"
        }
      ],
      "stateMutability": "nonpayable",
      "type": "constructor"
    },
    {
      "inputs": [
        {
          "internalType": "address",
          "name": "sender",
          "type": "address"
        },
        {
          "internalType": "uint256",
          "name": "balance",
          "type": "uint256"
        },
        {
          "internalType": "uint256",
          "name": "needed",
          "type": "uint256"
        },
        {
          "internalType": "uint256",
          "name": "tokenId",
          "type": "uint256"
        }
      ],
      "name": "ERC1155InsufficientBalance",
      "type": "error"
    },
    {
      "inputs": [
        {
          "internalType": "address",
          "name": "approver",
          "type": "address"
        }
      ],
      "name": "ERC1155InvalidApprover",
      "type": "error"
    },
    {
      "inputs": [
        {
          "internalType": "uint256",
          "name": "idsLength",
          "type": "uint256"
        },
        {
          "internalType": "uint256",
          "name": "valuesLength",
          "type": "uint256"
        }
      ],
      "name": "ERC1155InvalidArrayLength",
      "type": "error"
    },
    {
      "inputs": [
        {
          "internalType": "address",
          "name": "operator",
          "type": "address"
        }
      ],
      "name": "ERC1155InvalidOperator",
      "type": "error"
    },
    {
      "inputs": [
        {
          "internalType": "address",
          "name": "receiver",
          "type": "address"
        }
      ],
      "name": "ERC1155InvalidReceiver",
      "type": "error"
    },
    {
      "inputs": [
        {
          "internalType": "address",
          "name": "sender",
          "type": "address"
        }
      ],
      "name": "ERC1155InvalidSender",
      "type": "error"
    },
    {
      "inputs": [
        {
          "internalType": "address",
          "name": "operator",
          "type": "address"
        },
        {
          "internalType": "address",
          "name": "owner",
          "type": "address"
        }
      ],
      "name": "ERC1155MissingApprovalForAll",
      "type": "error"
    },
    {
      "inputs": [
        {
          "internalType": "address",
          "name": "owner",
          "type": "address"
        }
      ],
      "name": "OwnableInvalidOwner",
      "type": "error"
    },
    {
      "inputs": [
        {
          "internalType": "address",
          "name": "account",
          "type": "address"
        }
      ],
      "name": "OwnableUnauthorizedAccount",
      "type": "error"
    },
    {
      "anonymous": false,
      "inputs": [
        {
          "indexed": true,
          "internalType": "address",
          "name": "account",
          "type": "address"
        },
        {
          "indexed": true,
          "internalType": "address",
          "name": "operator",
          "type": "address"
        },
        {
          "indexed": false,
          "internalType": "bool",
          "name": "approved",
          "type": "bool"
        }
      ],
      "name": "ApprovalForAll",
      "type": "event"
    },
    {
      "anonymous": false,
      "inputs": [
        {
          "indexed": true,
          "internalType": "address",
          "name": "previousOwner",
          "type": "address"
        },
        {
          "indexed": true,
          "internalType": "address",
          "name": "newOwner",
          "type": "address"
        }
      ],
      "name": "OwnershipTransferred",
      "type": "event"
    },
    {
      "anonymous": false,
      "inputs": [
        {
          "indexed": true,
          "internalType": "address",
          "name": "operator",
          "type": "address"
        },
        {
          "indexed": true,
          "internalType": "address",
          "name": "from",
          "type": "address"
        },
        {
          "indexed": true,
          "internalType": "address",
          "name": "to",
          "type": "address"
        },
        {
          "indexed": false,
          "internalType": "uint256[]",
          "name": "ids",
          "type": "uint256[]"
        },
        {
          "indexed": false,
          "internalType": "uint256[]",
          "name": "values",
          "type": "uint256[]"
        }
      ],
      "name": "TransferBatch",
      "type": "event"
    },
    {
      "anonymous": false,
      "inputs": [
        {
          "indexed": true,
          "internalType": "address",
          "name": "operator",
          "type": "address"
        },
        {
          "indexed": true,
          "internalType": "address",
          "name": "from",
          "type": "address"
        },
        {
          "indexed": true,
          "internalType": "address",
          "name": "to",
          "type": "address"
        },
        {
          "indexed": false,
          "internalType": "uint256",
          "name": "id",
          "type": "uint256"
        },
        {
          "indexed": false,
          "internalType": "uint256",
          "name": "value",
          "type": "uint256"
        }
      ],
      "name": "TransferSingle",
      "type": "event"
    },
    {
      "anonymous": false,
      "inputs": [
        {
          "indexed": false,
          "internalType": "string",
          "name": "value",
          "type": "string"
        },
        {
          "indexed": true,
          "internalType": "uint256",
          "name": "id",
          "type": "uint256"
        }
      ],
      "name": "URI",
      "type": "event"
    },
    {
      "inputs": [
        {
          "internalType": "address",
          "name": "account",
          "type": "address"
        },
        {
          "internalType": "uint256",
          "name": "id",
          "type": "uint256"
        }
      ],
      "name": "balanceOf",
      "outputs": [
        {
          "internalType": "uint256",
          "name": "",
          "type": "uint256"
        }
      ],
      "stateMutability": "view",
      "type": "function"
    },
    {
      "inputs": [
        {
          "internalType": "address[]",
          "name": "accounts",
          "type": "address[]"
        },
        {
          "internalType": "uint256[]",
          "name": "ids",
          "type": "uint256[]"
        }
      ],
      "name": "balanceOfBatch",
      "outputs": [
        {
          "internalType": "uint256[]",
          "name": "",
          "type": "uint256[]"
        }
      ],
      "stateMutability": "view",
      "type": "function"
    },
    {
      "inputs": [
        {
          "internalType": "address",
          "name": "account",
          "type": "address"
        },
        {
          "internalType": "uint256",
          "name": "id",
          "type": "uint256"
        },
        {
          "internalType": "uint256",
          "name": "value",
          "type": "uint256"
        }
      ],
      "name": "burn",
      "outputs": [],
      "stateMutability": "nonpayable",
      "type": "function"
    },
    {
      "inputs": [
        {
          "internalType": "address",
          "name": "account",
          "type": "address"
        },
        {
          "internalType": "uint256[]",
          "name": "ids",
          "type": "uint256[]"
        },
        {
          "internalType": "uint256[]",
          "name": "values",
          "type": "uint256[]"
        }
      ],
      "name": "burnBatch",
      "outputs": [],
      "stateMutability": "nonpayable",
      "type": "function"
    },
    {
      "inputs": [
        {
          "internalType": "uint256",
          "name": "id",
          "type": "uint256"
        },
        {
          "internalType": "uint256",
          "name": "value",
          "type": "uint256"
        }
      ],
      "name": "burnToken",
      "outputs": [],
      "stateMutability": "nonpayable",
      "type": "function"
    },
    {
      "inputs": [],
      "name": "currentPrice",
      "outputs": [
        {
          "internalType": "uint256",
          "name": "",
          "type": "uint256"
        }
      ],
      "stateMutability": "view",
      "type": "function"
    },
    {
      "inputs": [
        {
          "internalType": "uint256",
          "name": "id",
          "type": "uint256"
        }
      ],
      "name": "exists",
      "outputs": [
        {
          "internalType": "bool",
          "name": "",
          "type": "bool"
        }
      ],
      "stateMutability": "view",
      "type": "function"
    },
    {
      "inputs": [
        {
          "internalType": "address",
          "name": "account",
          "type": "address"
        },
        {
          "internalType": "address",
          "name": "operator",
          "type": "address"
        }
      ],
      "name": "isApprovedForAll",
      "outputs": [
        {
          "internalType": "bool",
          "name": "",
          "type": "bool"
        }
      ],
      "stateMutability": "view",
      "type": "function"
    },
    {
      "inputs": [
        {
          "internalType": "uint256",
          "name": "id",
          "type": "uint256"
        },
        {
          "internalType": "uint256",
          "name": "mintAmount",
          "type": "uint256"
        }
      ],
      "name": "mint",
      "outputs": [],
      "stateMutability": "payable",
      "type": "function"
    },
    {
      "inputs": [],
      "name": "owner",
      "outputs": [
        {
          "internalType": "address",
          "name": "",
          "type": "address"
        }
      ],
      "stateMutability": "view",
      "type": "function"
    },
    {
      "inputs": [],
      "name": "renounceOwnership",
      "outputs": [],
      "stateMutability": "nonpayable",
      "type": "function"
    },
    {
      "inputs": [
        {
          "internalType": "address",
          "name": "from",
          "type": "address"
        },
        {
          "internalType": "address",
          "name": "to",
          "type": "address"
        },
        {
          "internalType": "uint256[]",
          "name": "ids",
          "type": "uint256[]"
        },
        {
          "internalType": "uint256[]",
          "name": "values",
          "type": "uint256[]"
        },
        {
          "internalType": "bytes",
          "name": "data",
          "type": "bytes"
        }
      ],
      "name": "safeBatchTransferFrom",
      "outputs": [],
      "stateMutability": "nonpayable",
      "type": "function"
    },
    {
      "inputs": [
        {
          "internalType": "address",
          "name": "from",
          "type": "address"
        },
        {
          "internalType": "address",
          "name": "to",
          "type": "address"
        },
        {
          "internalType": "uint256",
          "name": "id",
          "type": "uint256"
        },
        {
          "internalType": "uint256",
          "name": "value",
          "type": "uint256"
        },
        {
          "internalType": "bytes",
          "name": "data",
          "type": "bytes"
        }
      ],
      "name": "safeTransferFrom",
      "outputs": [],
      "stateMutability": "nonpayable",
      "type": "function"
    },
    {
      "inputs": [
        {
          "internalType": "address",
          "name": "operator",
          "type": "address"
        },
        {
          "internalType": "bool",
          "name": "approved",
          "type": "bool"
        }
      ],
      "name": "setApprovalForAll",
      "outputs": [],
      "stateMutability": "nonpayable",
      "type": "function"
    },
    {
      "inputs": [
        {
          "internalType": "string",
          "name": "newuri",
          "type": "string"
        }
      ],
      "name": "setURI",
      "outputs": [],
      "stateMutability": "nonpayable",
      "type": "function"
    },
    {
      "inputs": [
        {
          "internalType": "bytes4",
          "name": "interfaceId",
          "type": "bytes4"
        }
      ],
      "name": "supportsInterface",
      "outputs": [
        {
          "internalType": "bool",
          "name": "",
          "type": "bool"
        }
      ],
      "stateMutability": "view",
      "type": "function"
    },
    {
      "inputs": [],
      "name": "totalSupply",
      "outputs": [
        {
          "internalType": "uint256",
          "name": "",
          "type": "uint256"
        }
      ],
      "stateMutability": "view",
      "type": "function"
    },
    {
      "inputs": [
        {
          "internalType": "uint256",
          "name": "id",
          "type": "uint256"
        }
      ],
      "name": "totalSupply",
      "outputs": [
        {
          "internalType": "uint256",
          "name": "",
          "type": "uint256"
        }
      ],
      "stateMutability": "view",
      "type": "function"
    },
    {
      "inputs": [
        {
          "internalType": "address",
          "name": "newOwner",
          "type": "address"
        }
      ],
      "name": "transferOwnership",
      "outputs": [],
      "stateMutability": "nonpayable",
      "type": "function"
    },
    {
      "inputs": [
        {
          "internalType": "uint256",
          "name": "",
          "type": "uint256"
        }
      ],
      "name": "uri",
      "outputs": [
        {
          "internalType": "string",
          "name": "",
          "type": "string"
        }
      ],
      "stateMutability": "view",
      "type": "function"
    }
  ],
  "bytecode": "0x60806040523480156200001157600080fd5b50604051620038a0380380620038a0833981810160405281019062000037919062000397565b33826200004a81620000ee60201b60201c565b50600073ffffffffffffffffffffffffffffffffffffffff168173ffffffffffffffffffffffffffffffffffffffff1603620000c05760006040517f1e4fbdf7000000000000000000000000000000000000000000000000000000008152600401620000b7919062000442565b60405180910390fd5b620000d1816200010360201b60201c565b5080600681905550655af3107a4000600781905550505062000787565b8060029081620000ff9190620006a0565b5050565b6000600360009054906101000a900473ffffffffffffffffffffffffffffffffffffffff16905081600360006101000a81548173ffffffffffffffffffffffffffffffffffffffff021916908373ffffffffffffffffffffffffffffffffffffffff1602179055508173ffffffffffffffffffffffffffffffffffffffff168173ffffffffffffffffffffffffffffffffffffffff167f8be0079c531659141344cd1fd0a4f28419497f9722a3daafe3b4186f6b6457e060405160405180910390a35050565b6000604051905090565b600080fd5b600080fd5b600080fd5b600080fd5b6000601f19601f8301169050919050565b7f4e487b7100000000000000000000000000000000000000000000000000000000600052604160045260246000fd5b6200023282620001e7565b810181811067ffffffffffffffff82111715620002545762000253620001f8565b5b80604052505050565b600062000269620001c9565b905062000277828262000227565b919050565b600067ffffffffffffffff8211156200029a5762000299620001f8565b5b620002a582620001e7565b9050602081019050919050565b60005b83811015620002d2578082015181840152602081019050620002b5565b60008484015250505050565b6000620002f5620002ef846200027c565b6200025d565b905082815260208101848484011115620003145762000313620001e2565b5b62000321848285620002b2565b509392505050565b600082601f830112620003415762000340620001dd565b5b815162000353848260208601620002de565b91505092915050565b6000819050919050565b62000371816200035c565b81146200037d57600080fd5b50565b600081519050620003918162000366565b92915050565b60008060408385031215620003b157620003b0620001d3565b5b600083015167ffffffffffffffff811115620003d257620003d1620001d8565b5b620003e08582860162000329565b9250506020620003f38582860162000380565b9150509250929050565b600073ffffffffffffffffffffffffffffffffffffffff82169050919050565b60006200042a82620003fd565b9050919050565b6200043c816200041d565b82525050565b600060208201905062000459600083018462000431565b92915050565b600081519050919050565b7f4e487b7100000000000000000000000000000000000000000000000000000000600052602260045260246000fd5b60006002820490506001821680620004b257607f821691505b602082108103620004c857620004c76200046a565b5b50919050565b60008190508160005260206000209050919050565b60006020601f8301049050919050565b600082821b905092915050565b600060088302620005327fffffffffffffffffffffffffffffffffffffffffffffffffffffffffffffffff82620004f3565b6200053e8683620004f3565b95508019841693508086168417925050509392505050565b6000819050919050565b6000620005816200057b62000575846200035c565b62000556565b6200035c565b9050919050565b6000819050919050565b6200059d8362000560565b620005b5620005ac8262000588565b84845462000500565b825550505050565b600090565b620005cc620005bd565b620005d981848462000592565b505050565b5b818110156200060157620005f5600082620005c2565b600181019050620005df565b5050565b601f82111562000650576200061a81620004ce565b6200062584620004e3565b8101602085101562000635578190505b6200064d6200064485620004e3565b830182620005de565b50505b505050565b600082821c905092915050565b6000620006756000198460080262000655565b1980831691505092915050565b600062000690838362000662565b9150826002028217905092915050565b620006ab826200045f565b67ffffffffffffffff811115620006c757620006c6620001f8565b5b620006d3825462000499565b620006e082828562000605565b600060209050601f83116001811462000718576000841562000703578287015190505b6200070f858262000682565b8655506200077f565b601f1984166200072886620004ce565b60005b8281101562000752578489015182556001820191506020850194506020810190506200072b565b868310156200077257848901516200076e601f89168262000662565b8355505b6001600288020188555050505b505050505050565b61310980620007976000396000f3fe60806040526004361061011e5760003560e01c8063715018a6116100a0578063bd85b03911610064578063bd85b039146103d5578063e985e9c514610412578063f242432a1461044f578063f2fde38b14610478578063f5298aca146104a15761011e565b8063715018a6146103165780638225b2471461032d5780638da5cb5b146103565780639d1b464a14610381578063a22cb465146103ac5761011e565b80631b2ef1ca116100e75780631b2ef1ca1461022e5780632eb2c2d61461024a5780634e1273f4146102735780634f558e79146102b05780636b20c454146102ed5761011e565b8062fdd58e1461012357806301ffc9a71461016057806302fe53051461019d5780630e89341c146101c657806318160ddd14610203575b600080fd5b34801561012f57600080fd5b5061014a60048036038101906101459190611f35565b6104ca565b6040516101579190611f84565b60405180910390f35b34801561016c57600080fd5b5061018760048036038101906101829190611ff7565b610524565b604051610194919061203f565b60405180910390f35b3480156101a957600080fd5b506101c460048036038101906101bf91906121a0565b610606565b005b3480156101d257600080fd5b506101ed60048036038101906101e891906121e9565b61061a565b6040516101fa9190612295565b60405180910390f35b34801561020f57600080fd5b506102186106ae565b6040516102259190611f84565b60405180910390f35b610248600480360381019061024391906122b7565b6106b8565b005b34801561025657600080fd5b50610271600480360381019061026c9190612460565b610787565b005b34801561027f57600080fd5b5061029a600480360381019061029591906125f2565b61082f565b6040516102a79190612728565b60405180910390f35b3480156102bc57600080fd5b506102d760048036038101906102d291906121e9565b610938565b6040516102e4919061203f565b60405180910390f35b3480156102f957600080fd5b50610314600480360381019061030f919061274a565b61094c565b005b34801561032257600080fd5b5061032b6109f8565b005b34801561033957600080fd5b50610354600480360381019061034f91906122b7565b610a0c565b005b34801561036257600080fd5b5061036b610a6d565b60405161037891906127e4565b60405180910390f35b34801561038d57600080fd5b50610396610a97565b6040516103a39190611f84565b60405180910390f35b3480156103b857600080fd5b506103d360048036038101906103ce919061282b565b610a9d565b005b3480156103e157600080fd5b506103fc60048036038101906103f791906121e9565b610ab3565b6040516104099190611f84565b60405180910390f35b34801561041e57600080fd5b506104396004803603810190610434919061286b565b610ad0565b604051610446919061203f565b60405180910390f35b34801561045b57600080fd5b50610476600480360381019061047191906128ab565b610b64565b005b34801561048457600080fd5b5061049f600480360381019061049a9190612942565b610c0c565b005b3480156104ad57600080fd5b506104c860048036038101906104c3919061296f565b610c92565b005b600080600083815260200190815260200160002060008473ffffffffffffffffffffffffffffffffffffffff1673ffffffffffffffffffffffffffffffffffffffff16815260200190815260200160002054905092915050565b60007fd9b67a26000000000000000000000000000000000000000000000000000000007bffffffffffffffffffffffffffffffffffffffffffffffffffffffff1916827bffffffffffffffffffffffffffffffffffffffffffffffffffffffff191614806105ef57507f0e89341c000000000000000000000000000000000000000000000000000000007bffffffffffffffffffffffffffffffffffffffffffffffffffffffff1916827bffffffffffffffffffffffffffffffffffffffffffffffffffffffff1916145b806105ff57506105fe82610d3e565b5b9050919050565b61060e610da8565b61061781610e2f565b50565b606060028054610629906129f1565b80601f0160208091040260200160405190810160405280929190818152602001828054610655906129f1565b80156106a25780601f10610677576101008083540402835291602001916106a2565b820191906000526020600020905b81548152906001019060200180831161068557829003601f168201915b50505050509050919050565b6000600554905090565b806007546106c69190612a51565b3414610707576040517f08c379a00000000000000000000000000000000000000000000000000000000081526004016106fe90612adf565b60405180910390fd5b6006548161071484610ab3565b61071e9190612aff565b111561075f576040517f08c379a000000000000000000000000000000000000000000000000000000000815260040161075690612b7f565b60405180910390fd5b61077a33838360405180602001604052806000815250610e42565b61078382610edb565b5050565b6000610791610f3a565b90508073ffffffffffffffffffffffffffffffffffffffff168673ffffffffffffffffffffffffffffffffffffffff16141580156107d657506107d48682610ad0565b155b1561081a5780866040517fe237d922000000000000000000000000000000000000000000000000000000008152600401610811929190612b9f565b60405180910390fd5b6108278686868686610f42565b505050505050565b6060815183511461087b57815183516040517f5b059991000000000000000000000000000000000000000000000000000000008152600401610872929190612bc8565b60405180910390fd5b6000835167ffffffffffffffff81111561089857610897612075565b5b6040519080825280602002602001820160405280156108c65781602001602082028036833780820191505090505b50905060005b845181101561092d576109036108eb828761103a90919063ffffffff16565b6108fe838761104e90919063ffffffff16565b6104ca565b82828151811061091657610915612bf1565b5b6020026020010181815250508060010190506108cc565b508091505092915050565b60008061094483610ab3565b119050919050565b610954610f3a565b73ffffffffffffffffffffffffffffffffffffffff168373ffffffffffffffffffffffffffffffffffffffff161415801561099d575061099b83610996610f3a565b610ad0565b155b156109e8576109aa610f3a565b836040517fe237d9220000000000000000000000000000000000000000000000000000000081526004016109df929190612b9f565b60405180910390fd5b6109f3838383611062565b505050565b610a00610da8565b610a0a60006110f6565b565b610a17338383610c92565b610a2082610edb565b3373ffffffffffffffffffffffffffffffffffffffff166108fc6007549081150290604051600060405180830381858888f19350505050158015610a68573d6000803e3d6000fd5b505050565b6000600360009054906101000a900473ffffffffffffffffffffffffffffffffffffffff16905090565b60075481565b610aaf610aa8610f3a565b83836111bc565b5050565b600060046000838152602001908152602001600020549050919050565b6000600160008473ffffffffffffffffffffffffffffffffffffffff1673ffffffffffffffffffffffffffffffffffffffff16815260200190815260200160002060008373ffffffffffffffffffffffffffffffffffffffff1673ffffffffffffffffffffffffffffffffffffffff16815260200190815260200160002060009054906101000a900460ff16905092915050565b6000610b6e610f3a565b90508073ffffffffffffffffffffffffffffffffffffffff168673ffffffffffffffffffffffffffffffffffffffff1614158015610bb35750610bb18682610ad0565b155b15610bf75780866040517fe237d922000000000000000000000000000000000000000000000000000000008152600401610bee929190612b9f565b60405180910390fd5b610c04868686868661132c565b505050505050565b610c14610da8565b600073ffffffffffffffffffffffffffffffffffffffff168173ffffffffffffffffffffffffffffffffffffffff1603610c865760006040517f1e4fbdf7000000000000000000000000000000000000000000000000000000008152600401610c7d91906127e4565b60405180910390fd5b610c8f816110f6565b50565b610c9a610f3a565b73ffffffffffffffffffffffffffffffffffffffff168373ffffffffffffffffffffffffffffffffffffffff1614158015610ce35750610ce183610cdc610f3a565b610ad0565b155b15610d2e57610cf0610f3a565b836040517fe237d922000000000000000000000000000000000000000000000000000000008152600401610d25929190612b9f565b60405180910390fd5b610d39838383611437565b505050565b60007f01ffc9a7000000000000000000000000000000000000000000000000000000007bffffffffffffffffffffffffffffffffffffffffffffffffffffffff1916827bffffffffffffffffffffffffffffffffffffffffffffffffffffffff1916149050919050565b610db0610f3a565b73ffffffffffffffffffffffffffffffffffffffff16610dce610a6d565b73ffffffffffffffffffffffffffffffffffffffff1614610e2d57610df1610f3a565b6040517f118cdaa7000000000000000000000000000000000000000000000000000000008152600401610e2491906127e4565b60405180910390fd5b565b8060029081610e3e9190612dcc565b5050565b600073ffffffffffffffffffffffffffffffffffffffff168473ffffffffffffffffffffffffffffffffffffffff1603610eb45760006040517f57f447ce000000000000000000000000000000000000000000000000000000008152600401610eab91906127e4565b60405180910390fd5b600080610ec185856114de565b91509150610ed360008784848761150e565b505050505050565b6000610ee682610ab3565b905060008103610f0357655af3107a400060078190555050610f37565b610fa08182670de0b6b3a7640000610f1b9190612a51565b610f259190612a51565b610f2f9190612ecd565b600781905550505b50565b600033905090565b600073ffffffffffffffffffffffffffffffffffffffff168473ffffffffffffffffffffffffffffffffffffffff1603610fb45760006040517f57f447ce000000000000000000000000000000000000000000000000000000008152600401610fab91906127e4565b60405180910390fd5b600073ffffffffffffffffffffffffffffffffffffffff168573ffffffffffffffffffffffffffffffffffffffff16036110265760006040517f01a8351400000000000000000000000000000000000000000000000000000000815260040161101d91906127e4565b60405180910390fd5b611033858585858561150e565b5050505050565b600060208202602084010151905092915050565b600060208202602084010151905092915050565b600073ffffffffffffffffffffffffffffffffffffffff168373ffffffffffffffffffffffffffffffffffffffff16036110d45760006040517f01a835140000000000000000000000000000000000000000000000000000000081526004016110cb91906127e4565b60405180910390fd5b6110f183600084846040518060200160405280600081525061150e565b505050565b6000600360009054906101000a900473ffffffffffffffffffffffffffffffffffffffff16905081600360006101000a81548173ffffffffffffffffffffffffffffffffffffffff021916908373ffffffffffffffffffffffffffffffffffffffff1602179055508173ffffffffffffffffffffffffffffffffffffffff168173ffffffffffffffffffffffffffffffffffffffff167f8be0079c531659141344cd1fd0a4f28419497f9722a3daafe3b4186f6b6457e060405160405180910390a35050565b600073ffffffffffffffffffffffffffffffffffffffff168273ffffffffffffffffffffffffffffffffffffffff160361122e5760006040517fced3e10000000000000000000000000000000000000000000000000000000000815260040161122591906127e4565b60405180910390fd5b80600160008573ffffffffffffffffffffffffffffffffffffffff1673ffffffffffffffffffffffffffffffffffffffff16815260200190815260200160002060008473ffffffffffffffffffffffffffffffffffffffff1673ffffffffffffffffffffffffffffffffffffffff16815260200190815260200160002060006101000a81548160ff0219169083151502179055508173ffffffffffffffffffffffffffffffffffffffff168373ffffffffffffffffffffffffffffffffffffffff167f17307eab39ab6107e8899845ad3d59bd9653f200f220920489ca2b5937696c318360405161131f919061203f565b60405180910390a3505050565b600073ffffffffffffffffffffffffffffffffffffffff168473ffffffffffffffffffffffffffffffffffffffff160361139e5760006040517f57f447ce00000000000000000000000000000000000000000000000000000000815260040161139591906127e4565b60405180910390fd5b600073ffffffffffffffffffffffffffffffffffffffff168573ffffffffffffffffffffffffffffffffffffffff16036114105760006040517f01a8351400000000000000000000000000000000000000000000000000000000815260040161140791906127e4565b60405180910390fd5b60008061141d85856114de565b9150915061142e878784848761150e565b50505050505050565b600073ffffffffffffffffffffffffffffffffffffffff168373ffffffffffffffffffffffffffffffffffffffff16036114a95760006040517f01a835140000000000000000000000000000000000000000000000000000000081526004016114a091906127e4565b60405180910390fd5b6000806114b684846114de565b915091506114d785600084846040518060200160405280600081525061150e565b5050505050565b60608060405191506001825283602083015260408201905060018152826020820152604081016040529250929050565b61151a858585856115c0565b600073ffffffffffffffffffffffffffffffffffffffff168473ffffffffffffffffffffffffffffffffffffffff16146115b9576000611558610f3a565b905060018451036115a857600061157960008661104e90919063ffffffff16565b9050600061159160008661104e90919063ffffffff16565b90506115a18389898585896115d2565b50506115b7565b6115b6818787878787611786565b5b505b5050505050565b6115cc8484848461193a565b50505050565b60008473ffffffffffffffffffffffffffffffffffffffff163b111561177e578373ffffffffffffffffffffffffffffffffffffffff1663f23a6e6187878686866040518663ffffffff1660e01b8152600401611633959493929190612f53565b6020604051808303816000875af192505050801561166f57506040513d601f19601f8201168201806040525081019061166c9190612fc2565b60015b6116f3573d806000811461169f576040519150601f19603f3d011682016040523d82523d6000602084013e6116a4565b606091505b5060008151036116eb57846040517f57f447ce0000000000000000000000000000000000000000000000000000000081526004016116e291906127e4565b60405180910390fd5b805181602001fd5b63f23a6e6160e01b7bffffffffffffffffffffffffffffffffffffffffffffffffffffffff1916817bffffffffffffffffffffffffffffffffffffffffffffffffffffffff19161461177c57846040517f57f447ce00000000000000000000000000000000000000000000000000000000815260040161177391906127e4565b60405180910390fd5b505b505050505050565b60008473ffffffffffffffffffffffffffffffffffffffff163b1115611932578373ffffffffffffffffffffffffffffffffffffffff1663bc197c8187878686866040518663ffffffff1660e01b81526004016117e7959493929190612fef565b6020604051808303816000875af192505050801561182357506040513d601f19601f820116820180604052508101906118209190612fc2565b60015b6118a7573d8060008114611853576040519150601f19603f3d011682016040523d82523d6000602084013e611858565b606091505b50600081510361189f57846040517f57f447ce00000000000000000000000000000000000000000000000000000000815260040161189691906127e4565b60405180910390fd5b805181602001fd5b63bc197c8160e01b7bffffffffffffffffffffffffffffffffffffffffffffffffffffffff1916817bffffffffffffffffffffffffffffffffffffffffffffffffffffffff19161461193057846040517f57f447ce00000000000000000000000000000000000000000000000000000000815260040161192791906127e4565b60405180910390fd5b505b505050505050565b61194684848484611ae5565b600073ffffffffffffffffffffffffffffffffffffffff168473ffffffffffffffffffffffffffffffffffffffff1603611a20576000805b8351811015611a0457600083828151811061199c5761199b612bf1565b5b6020026020010151905080600460008785815181106119be576119bd612bf1565b5b6020026020010151815260200190815260200160002060008282546119e39190612aff565b9250508190555080836119f69190612aff565b92505080600101905061197e565b508060056000828254611a179190612aff565b92505081905550505b600073ffffffffffffffffffffffffffffffffffffffff168373ffffffffffffffffffffffffffffffffffffffff1603611adf576000805b8351811015611acc576000838281518110611a7657611a75612bf1565b5b602002602001015190508060046000878581518110611a9857611a97612bf1565b5b6020026020010151815260200190815260200160002060008282540392505081905550808301925050806001019050611a58565b5080600560008282540392505081905550505b50505050565b8051825114611b2f57815181516040517f5b059991000000000000000000000000000000000000000000000000000000008152600401611b26929190612bc8565b60405180910390fd5b6000611b39610f3a565b905060005b8351811015611d48576000611b5c828661104e90919063ffffffff16565b90506000611b73838661104e90919063ffffffff16565b9050600073ffffffffffffffffffffffffffffffffffffffff168873ffffffffffffffffffffffffffffffffffffffff1614611ca057600080600084815260200190815260200160002060008a73ffffffffffffffffffffffffffffffffffffffff1673ffffffffffffffffffffffffffffffffffffffff16815260200190815260200160002054905081811015611c4857888183856040517f03dee4c5000000000000000000000000000000000000000000000000000000008152600401611c3f9493929190613057565b60405180910390fd5b81810360008085815260200190815260200160002060008b73ffffffffffffffffffffffffffffffffffffffff1673ffffffffffffffffffffffffffffffffffffffff16815260200190815260200160002081905550505b600073ffffffffffffffffffffffffffffffffffffffff168773ffffffffffffffffffffffffffffffffffffffff1614611d3b578060008084815260200190815260200160002060008973ffffffffffffffffffffffffffffffffffffffff1673ffffffffffffffffffffffffffffffffffffffff1681526020019081526020016000206000828254611d339190612aff565b925050819055505b5050806001019050611b3e565b506001835103611e07576000611d6860008561104e90919063ffffffff16565b90506000611d8060008561104e90919063ffffffff16565b90508573ffffffffffffffffffffffffffffffffffffffff168773ffffffffffffffffffffffffffffffffffffffff168473ffffffffffffffffffffffffffffffffffffffff167fc3d58168c5ae7397731d063d5bbf3d657854427343f4c083240f7aacaa2d0f628585604051611df8929190612bc8565b60405180910390a45050611e86565b8373ffffffffffffffffffffffffffffffffffffffff168573ffffffffffffffffffffffffffffffffffffffff168273ffffffffffffffffffffffffffffffffffffffff167f4a39dc06d4c0dbc64b70af90fd698a233a518aa5d07e595d983b8c0526c8f7fb8686604051611e7d92919061309c565b60405180910390a45b5050505050565b6000604051905090565b600080fd5b600080fd5b600073ffffffffffffffffffffffffffffffffffffffff82169050919050565b6000611ecc82611ea1565b9050919050565b611edc81611ec1565b8114611ee757600080fd5b50565b600081359050611ef981611ed3565b92915050565b6000819050919050565b611f1281611eff565b8114611f1d57600080fd5b50565b600081359050611f2f81611f09565b92915050565b60008060408385031215611f4c57611f4b611e97565b5b6000611f5a85828601611eea565b9250506020611f6b85828601611f20565b9150509250929050565b611f7e81611eff565b82525050565b6000602082019050611f996000830184611f75565b92915050565b60007fffffffff0000000000000000000000000000000000000000000000000000000082169050919050565b611fd481611f9f565b8114611fdf57600080fd5b50565b600081359050611ff181611fcb565b92915050565b60006020828403121561200d5761200c611e97565b5b600061201b84828501611fe2565b91505092915050565b60008115159050919050565b61203981612024565b82525050565b60006020820190506120546000830184612030565b92915050565b600080fd5b600080fd5b6000601f19601f8301169050919050565b7f4e487b7100000000000000000000000000000000000000000000000000000000600052604160045260246000fd5b6120ad82612064565b810181811067ffffffffffffffff821117156120cc576120cb612075565b5b80604052505050565b60006120df611e8d565b90506120eb82826120a4565b919050565b600067ffffffffffffffff82111561210b5761210a612075565b5b61211482612064565b9050602081019050919050565b82818337600083830152505050565b600061214361213e846120f0565b6120d5565b90508281526020810184848401111561215f5761215e61205f565b5b61216a848285612121565b509392505050565b600082601f8301126121875761218661205a565b5b8135612197848260208601612130565b91505092915050565b6000602082840312156121b6576121b5611e97565b5b600082013567ffffffffffffffff8111156121d4576121d3611e9c565b5b6121e084828501612172565b91505092915050565b6000602082840312156121ff576121fe611e97565b5b600061220d84828501611f20565b91505092915050565b600081519050919050565b600082825260208201905092915050565b60005b83811015612250578082015181840152602081019050612235565b60008484015250505050565b600061226782612216565b6122718185612221565b9350612281818560208601612232565b61228a81612064565b840191505092915050565b600060208201905081810360008301526122af818461225c565b905092915050565b600080604083850312156122ce576122cd611e97565b5b60006122dc85828601611f20565b92505060206122ed85828601611f20565b9150509250929050565b600067ffffffffffffffff82111561231257612311612075565b5b602082029050602081019050919050565b600080fd5b600061233b612336846122f7565b6120d5565b9050808382526020820190506020840283018581111561235e5761235d612323565b5b835b8181101561238757806123738882611f20565b845260208401935050602081019050612360565b5050509392505050565b600082601f8301126123a6576123a561205a565b5b81356123b6848260208601612328565b91505092915050565b600067ffffffffffffffff8211156123da576123d9612075565b5b6123e382612064565b9050602081019050919050565b60006124036123fe846123bf565b6120d5565b90508281526020810184848401111561241f5761241e61205f565b5b61242a848285612121565b509392505050565b600082601f8301126124475761244661205a565b5b81356124578482602086016123f0565b91505092915050565b600080600080600060a0868803121561247c5761247b611e97565b5b600061248a88828901611eea565b955050602061249b88828901611eea565b945050604086013567ffffffffffffffff8111156124bc576124bb611e9c565b5b6124c888828901612391565b935050606086013567ffffffffffffffff8111156124e9576124e8611e9c565b5b6124f588828901612391565b925050608086013567ffffffffffffffff81111561251657612515611e9c565b5b61252288828901612432565b9150509295509295909350565b600067ffffffffffffffff82111561254a57612549612075565b5b602082029050602081019050919050565b600061256e6125698461252f565b6120d5565b9050808382526020820190506020840283018581111561259157612590612323565b5b835b818110156125ba57806125a68882611eea565b845260208401935050602081019050612593565b5050509392505050565b600082601f8301126125d9576125d861205a565b5b81356125e984826020860161255b565b91505092915050565b6000806040838503121561260957612608611e97565b5b600083013567ffffffffffffffff81111561262757612626611e9c565b5b612633858286016125c4565b925050602083013567ffffffffffffffff81111561265457612653611e9c565b5b61266085828601612391565b9150509250929050565b600081519050919050565b600082825260208201905092915050565b6000819050602082019050919050565b61269f81611eff565b82525050565b60006126b18383612696565b60208301905092915050565b6000602082019050919050565b60006126d58261266a565b6126df8185612675565b93506126ea83612686565b8060005b8381101561271b57815161270288826126a5565b975061270d836126bd565b9250506001810190506126ee565b5085935050505092915050565b6000602082019050818103600083015261274281846126ca565b905092915050565b60008060006060848603121561276357612762611e97565b5b600061277186828701611eea565b935050602084013567ffffffffffffffff81111561279257612791611e9c565b5b61279e86828701612391565b925050604084013567ffffffffffffffff8111156127bf576127be611e9c565b5b6127cb86828701612391565b9150509250925092565b6127de81611ec1565b82525050565b60006020820190506127f960008301846127d5565b92915050565b61280881612024565b811461281357600080fd5b50565b600081359050612825816127ff565b92915050565b6000806040838503121561284257612841611e97565b5b600061285085828601611eea565b925050602061286185828601612816565b9150509250929050565b6000806040838503121561288257612881611e97565b5b600061289085828601611eea565b92505060206128a185828601611eea565b9150509250929050565b600080600080600060a086880312156128c7576128c6611e97565b5b60006128d588828901611eea565b95505060206128e688828901611eea565b94505060406128f788828901611f20565b935050606061290888828901611f20565b925050608086013567ffffffffffffffff81111561292957612928611e9c565b5b61293588828901612432565b9150509295509295909350565b60006020828403121561295857612957611e97565b5b600061296684828501611eea565b91505092915050565b60008060006060848603121561298857612987611e97565b5b600061299686828701611eea565b93505060206129a786828701611f20565b92505060406129b886828701611f20565b9150509250925092565b7f4e487b7100000000000000000000000000000000000000000000000000000000600052602260045260246000fd5b60006002820490506001821680612a0957607f821691505b602082108103612a1c57612a1b6129c2565b5b50919050565b7f4e487b7100000000000000000000000000000000000000000000000000000000600052601160045260246000fd5b6000612a5c82611eff565b9150612a6783611eff565b9250828202612a7581611eff565b91508282048414831517612a8c57612a8b612a22565b5b5092915050565b7f57726f6e6720616d6f756e740000000000000000000000000000000000000000600082015250565b6000612ac9600c83612221565b9150612ad482612a93565b602082019050919050565b60006020820190508181036000830152612af881612abc565b9050919050565b6000612b0a82611eff565b9150612b1583611eff565b9250828201905080821115612b2d57612b2c612a22565b5b92915050565b7f416d6f756e742065786365656420746f74616c20737570706c79000000000000600082015250565b6000612b69601a83612221565b9150612b7482612b33565b602082019050919050565b60006020820190508181036000830152612b9881612b5c565b9050919050565b6000604082019050612bb460008301856127d5565b612bc160208301846127d5565b9392505050565b6000604082019050612bdd6000830185611f75565b612bea6020830184611f75565b9392505050565b7f4e487b7100000000000000000000000000000000000000000000000000000000600052603260045260246000fd5b60008190508160005260206000209050919050565b60006020601f8301049050919050565b600082821b905092915050565b600060088302612c827fffffffffffffffffffffffffffffffffffffffffffffffffffffffffffffffff82612c45565b612c8c8683612c45565b95508019841693508086168417925050509392505050565b6000819050919050565b6000612cc9612cc4612cbf84611eff565b612ca4565b611eff565b9050919050565b6000819050919050565b612ce383612cae565b612cf7612cef82612cd0565b848454612c52565b825550505050565b600090565b612d0c612cff565b612d17818484612cda565b505050565b5b81811015612d3b57612d30600082612d04565b600181019050612d1d565b5050565b601f821115612d8057612d5181612c20565b612d5a84612c35565b81016020851015612d69578190505b612d7d612d7585612c35565b830182612d1c565b50505b505050565b600082821c905092915050565b6000612da360001984600802612d85565b1980831691505092915050565b6000612dbc8383612d92565b9150826002028217905092915050565b612dd582612216565b67ffffffffffffffff811115612dee57612ded612075565b5b612df882546129f1565b612e03828285612d3f565b600060209050601f831160018114612e365760008415612e24578287015190505b612e2e8582612db0565b865550612e96565b601f198416612e4486612c20565b60005b82811015612e6c57848901518255600182019150602085019450602081019050612e47565b86831015612e895784890151612e85601f891682612d92565b8355505b6001600288020188555050505b505050505050565b7f4e487b7100000000000000000000000000000000000000000000000000000000600052601260045260246000fd5b6000612ed882611eff565b9150612ee383611eff565b925082612ef357612ef2612e9e565b5b828204905092915050565b600081519050919050565b600082825260208201905092915050565b6000612f2582612efe565b612f2f8185612f09565b9350612f3f818560208601612232565b612f4881612064565b840191505092915050565b600060a082019050612f6860008301886127d5565b612f7560208301876127d5565b612f826040830186611f75565b612f8f6060830185611f75565b8181036080830152612fa18184612f1a565b90509695505050505050565b600081519050612fbc81611fcb565b92915050565b600060208284031215612fd857612fd7611e97565b5b6000612fe684828501612fad565b91505092915050565b600060a08201905061300460008301886127d5565b61301160208301876127d5565b818103604083015261302381866126ca565b9050818103606083015261303781856126ca565b9050818103608083015261304b8184612f1a565b90509695505050505050565b600060808201905061306c60008301876127d5565b6130796020830186611f75565b6130866040830185611f75565b6130936060830184611f75565b95945050505050565b600060408201905081810360008301526130b681856126ca565b905081810360208301526130ca81846126ca565b9050939250505056fea2646970667358221220cdb0a4b67f87348964cd9e650d9bfb6ce118e8fba7479c867b90c26eeb5e725464736f6c63430008180033",
  "linkReferences": {},
  "deployedLinkReferences": {}
}